:100000000C948F000C941B020C94AC000C94AC006C
:100010000C94AC000C94AC000C94AC000C94AC00B0
:100020000C94AC000C94AC000C94AC000C94AC00A0
:100030000C94AC000C94AC000C94AC000C94AC0090
:100040000C94AC000C94AC000C94AC000C94AC0080
:100050000C94AC000C94AC000C94AC000C94AC0070
:100060000C94AC000C94AC008104850487048904D2
:100070008B048D048F0409022200010100801909FC
:100080000400000103010100092101010001223FD8
:10009000000705810308000A120110010000000892
:1000A000424231E1000101020001100350006100F1
:1000B00073007300670065006E00200363006F002B
:1000C0006400650061006E0064006C0069006600F9
:1000D00065002E0063006F006D0004030904050134
:1000E0000906A10175019508050719E029E7150022
:1000F00025018102950175088103950575010508A3
:10010000190129059102950175039103950675085A
:10011000150025650507190029658100C000112417
:100120001FBECFEFD8E0DEBFCDBF11E0A0E0B1E051
:10013000EAE4F9E002C005900D92A430B107D9F7C6
:1001400021E0A4E0B1E001C01D92A434B207E1F7C0
:100150000E9484030C94A3040C940000CF93C62F38
:100160002091190124FF07C020911A0138E82327A4
:1001700020931A0103C02AE520931901DC01EBE169
:10018000F1E09C2F9E0F8D918193892F8E1B181665
:10019000D4F36C2F8BE191E00E941702CC5FC093E7
:1001A0001901CF910895CF93DF9360912A01635095
:1001B00067FDC3C080912701CCE0D0E0C81BD10906
:1001C000C25DDE4F809126018D3209F0A4C06830F7
:1001D00009F0B1C083EC80930E018AE580930101A0
:1001E000109204018881807621F0CE010E943C03A8
:1001F0007FC09A81109217018981811106C01092E7
:10020000180127E131E082E06FC0853019F4909346
:100210002B0167C0863009F04EC08B81813041F4DC
:1002200088E990E0909329018093280182E13FC002
:10023000823041F486E790E0909329018093280171
:1002400082E235C08330F1F4911108C08AED90E06C
:10025000909329018093280184E029C0913041F4D2
:100260008AEB90E0909329018093280180E21FC0DF
:100270009230E1F48AEA90E090932901809328017A
:1002800080E115C0813241F488E890E09093290123
:100290008093280189E00BC0823241F48EED90E01A
:1002A00090932901809328018FE301C080E090E4BE
:1002B000909304011DC0883069F0893019F490933F
:1002C0002D010FC08A3049F08B3059F48BE48093B4
:1002D0001A0107C02DE231E002C027E131E081E0E0
:1002E00003C027E131E080E0309329012093280109
:1002F0008F3F39F4988197FD8E8190E890930401A7
:1003000007C09F81911104C09E81981708F4892F1E
:100310008093000110C08091040187FF0CC0CE01C2
:100320000E946E038F3F21F48EE18093010103C090
:1003300081111092000110922A018091010184FF25
:1003400047C0809100018F3F09F442C0C82F893017
:1003500008F0C8E08C1B8093000180910E0198E8A2
:10036000892780930E01CC2331F12091280130910F
:1003700029018091040186FF0BC0AFE0B1E0F901D3
:100380008C2F8A0F94919D9331968A13FBCF09C0CD
:10039000D901EFE0F1E08C2F8E0F9D9191938E1398
:1003A000FCCF8FEF8C0F90E00196820F931F9093FC
:1003B0002901809328016C2F8FE091E00E941702A1
:1003C000CC5FCC3019F08FEF80930001C093010116
:1003D00084E199B1947131F48150D9F710922B01D5
:1003E00010922501DF91CF910895E9E6F0E0808138
:1003F00082608083E89A8BE480931A018AE5809377
:1004000019010895A82FB92F80E090E041E050EA4B
:10041000609530E009C02D9182279795879510F05F
:1004200084279527305EC8F36F5FA8F30895EADF4D
:100430008D939D930895CF93CFB7CF93DF93C395BB
:100440004C9BE9F74C9B0BC04C9B09C04C9B07C0D5
:100450004C9B05C04C9B03C04C9B01C08BC06F9351
:10046000C0912701DD27C25DDE4F2F9365E54C9BD0
:1004700003C02F916F91E6CF0F931F934F9320E00E
:1004800040E15F9309B1047104FB27F93F9350E009
:100490003BE039C0147140642F77012F5F5F1EC0AD
:1004A000406819B114712F7752501FC0406409B1D0
:1004B0002F770471D1F15F5F00C023C0406219B192
:1004C0002F77147191F15F5F00C025C00471102770
:1004D000515012F45D5F0000115027952C3F19B167
:1004E000C8F614710127015027952C3FC8F6422702
:1004F000499309B1047110274F73115027952C3F70
:10050000A8F64695469519B1147179F00127015066
:1005100027952C3F98F66B5A60F3315009B1B0F62D
:1005200000C011E01CBB002719C03B503195C31B14
:10053000D04011E01CBB0881033C09F10B34F9F0F9
:10054000209125011981110F1213EDCF4A81441F0B
:10055000093651F10D3211F0013E29F700932C01BB
:100560003F915F914F911F910F912F916F91CCB35C
:10057000C0FD65CFDF91CF91CFBFCF91189520916E
:100580002C01222369F310912A01112391F53430B3
:1005900092F130932A0120932601109127013BE02C
:1005A000311B3093270127C000912A0101300CF53F
:1005B0000AE54F7049F43091010134FD1DC00093EC
:1005C0000101CEE0D1E01CC03091190134FD14C00E
:1005D00000931901CAE1D1E013C0052710E000C063
:1005E00000000BB91AC0052710E0221F1DC010E043
:1005F00021C04AE502C032ED432FC4E1D0E032E031
:100600001AB114615C9A0BB11AB954E120E865E3A0
:1006100020FF05270BB9279517951C3FF0F6669527
:10062000B8F7B1F720FF05270BB9279517951C3FA1
:10063000D0F62795179517FF052700001C3F0BB92B
:10064000B0F629913A9519F70B7E10912B01110FF5
:10065000C651D0400BB911F01093250111E01CBB1D
:1006600000611AB11B7E402F4B7E54E05A95F1F782
:100670000BB91AB94BB974CFFC01808180768032F6
:1006800059F58181823001F170F4813029F586E0DD
:1006900091E0909329018093280110920601109215
:1006A000080188E00895893031F08A30A9F4838107
:1006B0008093050111C081E0268137812130310509
:1006C00009F080E08195089585E091E090932901FB
:1006D0008093280181E0089580E00895FC018081E5
:1006E0009091020189138093020181E00895109294
:1006F00006019FE9980F9A3120F48D5580930801E7
:100700000895109208010895CF93DF9300D01F92AF
:10071000CDB7DEB72098219822982398249857982F
:10072000289829982A982B982C985F98109206015F
:1007300010920701109208011092090110920A010B
:1007400010920B0110920C0110920D012EE088E125
:1007500090E00FB6F894A895809360000FBE2093A8
:1007600060000E94F50155985D988AEFA895EFE327
:10077000FFE13197F1F700C000008150B9F7559AB9
:100780005D9A7894212C312C412C512C612C712CA8
:10079000812C912CA12CB12CC12CD12CE12CF12C31
:1007A00000E010E01B821A8220E0A89529830E94B5
:1007B000D300298118990EC0FA81FF5FFA832111B5
:1007C00012C0F83C80F081E078120DC0712C1A82C2
:1007D00022E009C0D394E7ECED1528F4711003C0B2
:1007E00077247394D12C19990EC0FB81FF5FFB8392
:1007F000211112C0F83C80F081E068120DC0612C1C
:100800001B8223E009C0C394E7ECEC1528F46110C7
:1008100003C066246394C12C1A990CC01F5F211178
:1008200012C0183C80F0F1E05F120DC0512C10E0B6
:1008300024E009C0B39487EC8B1528F4511003C051
:1008400055245394B12C1B990CC00F5F211112C079
:10085000083C80F0E1E04E120DC0412C00E025E0A4
:1008600009C0A394F7ECFA1528F4411003C04424FE
:100870004394A12C1C990DC0F394211113C087EC53
:100880008F1580F4E1E03E120DC0312CF12C26E0F2
:1008900009C09394F7ECF91528F4311003C0332400
:1008A0003394912C4F990DC0E394211113C087EC20
:1008B0008E1580F4E1E02E120DC0212CE12C27E0F2
:1008C00009C08394F7ECF81528F4211003C0222402
:1008D0002394812C8091190184FF67CF222309F48E
:1008E00064CF809102018F3F09F45FCF822F90E0A7
:1008F000FC013197E730F105B8F4EC5CFF4F0C9444
:100900009D0480E00E9477030FC081E609C083E761
:1009100007C084E605C086E603C087E701C085E618
:100920000E94770321E001C020E068E086E091E0CA
:1009300029830E94AE00298138CFEE0FFF1F05905A
:0A094000F491E02D0994F894FFCF24
:04094A00FF5AFF0051
:00000001FF
